{
	"contracts/OverflowDemo.sol": {
		"OverflowDemo": {
			"abi": [
				{
					"inputs": [],
					"name": "overflow",
					"outputs": [
						{
							"internalType": "uint8",
							"name": "",
							"type": "uint8"
						}
					],
					"stateMutability": "view",
					"type": "function"
				}
			],
			"devdoc": {
				"kind": "dev",
				"methods": {},
				"version": 1
			},
			"evm": {
				"assembly": "    /* \"contracts/OverflowDemo.sol\":56:182  contract OverflowDemo{... */\n  mstore(0x40, 0x80)\n  callvalue\n  dup1\n  iszero\n  tag_1\n  jumpi\n  0x00\n  dup1\n  revert\ntag_1:\n  pop\n  dataSize(sub_0)\n  dup1\n  dataOffset(sub_0)\n  0x00\n  codecopy\n  0x00\n  return\nstop\n\nsub_0: assembly {\n        /* \"contracts/OverflowDemo.sol\":56:182  contract OverflowDemo{... */\n      mstore(0x40, 0x80)\n      callvalue\n      dup1\n      iszero\n      tag_1\n      jumpi\n      0x00\n      dup1\n      revert\n    tag_1:\n      pop\n      jumpi(tag_2, lt(calldatasize, 0x04))\n      shr(0xe0, calldataload(0x00))\n      dup1\n      0x4264c3\n      eq\n      tag_3\n      jumpi\n    tag_2:\n      0x00\n      dup1\n      revert\n        /* \"contracts/OverflowDemo.sol\":83:180  function overflow() public view returns(uint8){... */\n    tag_3:\n      tag_4\n      tag_5\n      jump\t// in\n    tag_4:\n      mload(0x40)\n      dup1\n      dup3\n      0xff\n      and\n      dup2\n      mstore\n      0x20\n      add\n      swap2\n      pop\n      pop\n      mload(0x40)\n      dup1\n      swap2\n      sub\n      swap1\n      return\n    tag_5:\n        /* \"contracts/OverflowDemo.sol\":123:128  uint8 */\n      0x00\n        /* \"contracts/OverflowDemo.sol\":135:144  uint8 big */\n      dup1\n        /* \"contracts/OverflowDemo.sol\":155:156  1 */\n      0x01\n        /* \"contracts/OverflowDemo.sol\":145:148  255 */\n      0xff\n        /* \"contracts/OverflowDemo.sol\":145:157  255+uint8(1) */\n      add\n        /* \"contracts/OverflowDemo.sol\":135:157  uint8 big=255+uint8(1) */\n      swap1\n      pop\n        /* \"contracts/OverflowDemo.sol\":170:173  big */\n      dup1\n        /* \"contracts/OverflowDemo.sol\":163:173  return big */\n      swap2\n      pop\n      pop\n        /* \"contracts/OverflowDemo.sol\":83:180  function overflow() public view returns(uint8){... */\n      swap1\n      jump\t// out\n\n    auxdata: 0xa2646970667358221220190b5d616272127af93bfb76b6662357fddaec33c020226e6611fcbc2252989364736f6c634300060c0033\n}\n",
				"bytecode": {
					"linkReferences": {},
					"object": "6080604052348015600f57600080fd5b5060928061001e6000396000f3fe6080604052348015600f57600080fd5b506004361060275760003560e01c80624264c314602c575b600080fd5b6032604b565b604051808260ff16815260200191505060405180910390f35b600080600160ff019050809150509056fea2646970667358221220190b5d616272127af93bfb76b6662357fddaec33c020226e6611fcbc2252989364736f6c634300060c0033",
					"opcodes": "PUSH1 0x80 PUSH1 0x40 MSTORE CALLVALUE DUP1 ISZERO PUSH1 0xF JUMPI PUSH1 0x0 DUP1 REVERT JUMPDEST POP PUSH1 0x92 DUP1 PUSH2 0x1E PUSH1 0x0 CODECOPY PUSH1 0x0 RETURN INVALID PUSH1 0x80 PUSH1 0x40 MSTORE CALLVALUE DUP1 ISZERO PUSH1 0xF JUMPI PUSH1 0x0 DUP1 REVERT JUMPDEST POP PUSH1 0x4 CALLDATASIZE LT PUSH1 0x27 JUMPI PUSH1 0x0 CALLDATALOAD PUSH1 0xE0 SHR DUP1 PUSH3 0x4264C3 EQ PUSH1 0x2C JUMPI JUMPDEST PUSH1 0x0 DUP1 REVERT JUMPDEST PUSH1 0x32 PUSH1 0x4B JUMP JUMPDEST PUSH1 0x40 MLOAD DUP1 DUP3 PUSH1 0xFF AND DUP2 MSTORE PUSH1 0x20 ADD SWAP2 POP POP PUSH1 0x40 MLOAD DUP1 SWAP2 SUB SWAP1 RETURN JUMPDEST PUSH1 0x0 DUP1 PUSH1 0x1 PUSH1 0xFF ADD SWAP1 POP DUP1 SWAP2 POP POP SWAP1 JUMP INVALID LOG2 PUSH5 0x6970667358 0x22 SLT KECCAK256 NOT SIGNEXTEND 0x5D PUSH2 0x6272 SLT PUSH27 0xF93BFB76B6662357FDDAEC33C020226E6611FCBC2252989364736F PUSH13 0x634300060C0033000000000000 "
				},
				"gasEstimates": {
					"creation": {
						"codeDepositCost": "29200",
						"executionCost": "81",
						"totalCost": "29281"
					},
					"external": {
						"overflow()": "216"
					}
				},
				"methodIdentifiers": {
					"overflow()": "004264c3"
				}
			},
			"storageLayout": {
				"storage": [],
				"types": null
			},
			"userdoc": {
				"kind": "user",
				"methods": {},
				"version": 1
			}
		}
	}
}